:020000040000FA
:1000000000040020990900002D0600007909000075
:1000100037060000410600004B060000000000000B
:10002000000000000000000000000000BD0900000A
:1000300055060000000000005F0600006906000091
:10004000730600007D060000870600009106000090
:100050009B060000A5060000AF060000B9060000E0
:10006000C3060000CD060000D7060000E106000030
:10007000EB060000F5060000FF060000090700007F
:10008000130700001D0700002707000031070000CC
:100090003B070000450700004F070000590700001C
:1000A000630700006D07000077070000810700006C
:1000B0008B070000950700009F070000A9070000BC
:1000C000B3070000BD070000C7070000D10700000C
:1000D000DB070000E5070000EF070000F90700005C
:1000E000030800000D0800001708000021080000A8
:1000F0002B080000350800003F08000049080000F8
:10010000530800001FB500F003F88DE80F001FBD75
:1001100000F038BC70B50B46010B184400F6FF70B8
:10012000040B4FF080500022090303692403406947
:1001300043431D1B104600F0E9F929462046BDE85F
:10014000704000F0E3B9F0B54FF6FF734FF4B475AB
:100150001A466E1E12E0A94201D3344600E00C4656
:10016000B1EB040130F8027B641E3B441A44F9D120
:100170009CB204EB134394B204EB12420029EAD17F
:1001800098B200EB134002EB124140EA0140F0BD8F
:10019000C34992B00446D1E90001CDE91001FF2224
:1001A0004021684600F094FB94E80F008DE80F00B2
:1001B000684610A902E004C841F8042D8842FAD12B
:1001C00010216846FFF7BFFF1090AA208DF8440069
:1001D00000F0FAF800F0DDF84FF01024A0691022CA
:1001E0006946803000F0DEF8A069082210A900F00E
:1001F000D9F800F0C2F870B504460068A94D072888
:1002000069D2DFE800F033041929561E2500D4E92D
:10021000026564682946304600F0FDF82A4621460A
:10022000304600F0BFF8AA002146304600F024FB1B
:10023000002800D0032070BD00F0D6FB4FF48050A2
:1002400007E0201D00F0C6F80028F4D100F0CCFB38
:1002500060682860002070BD241D94E807009200AB
:1002600000F00AFB0028F6D00E2070BD00F0BEF8AA
:100270000028FAD1D4E9010100EB81034FF080504E
:10028000026945696A43934209D84FF010225369C5
:1002900003EB81030169406941438B4201D9092085
:1002A00070BD5069401C01D10F2070BD2046FFF782
:1002B0006FFF00F09BF80028F7D1201D00F08AF8AE
:1002C0000028F2D160680028F0D100F07DF800F03D
:1002D00060F800F052F8072070BD10B50C461828E1
:1002E00002D00120086010BD2068FFF784FF206065
:1002F00010BD4FF01024A069401C05D0A569A66967
:1003000080353079AA2808D06069401C2DD06069FA
:100310000068401C29D060692CE010212846FFF7B6
:1003200012FF316881421CD1A16901F18002C03104
:1003300005E030B108CA51F8040D984201D10120FE
:1003400000E000208A42F4D158B1286810B1042896
:1003500003D0FEE7284600F070F85249686808604C
:1003600008E000F016F800F008F84FF4805001683B
:10037000491C01D000F012FBFEE7BFF34F8F4A4843
:1003800001684A4A01F4E06111430160BFF34F8FF5
:10039000FEE74FF010208169491C02D0806900F00F
:1003A0008CB870472DE9F04117460D4606460024EB
:1003B00006E03046296800F093F8641C2D1D361DB8
:1003C000BC42F6D3BDE8F0814FF0102080694FF4B5
:1003D00080519FE64FF080510A69496900684A439D
:1003E000824201D810207047002070474FF08050A3
:1003F0000169406941434FF01020826902F5805243
:10040000914201D2092070478069401C01D0002030
:1004100070470420704770B50C4605464FF480665F
:1004200008E0284600F049F8B44205D3A4F58064FA
:1004300005F58055002CF4D170BD4168044609B122
:10044000012600E000264FF010256869A26892009E
:1004500000F012FAF8B1A06881006869FFF75AFE4F
:10046000BEB16E694FF08050A56864680169426949
:100470005143A1420DD9016940694143A94208D9BC
:1004800029463046FFF7C7FF2A4621463046FFF788
:1004900089FFFFF772FFFFF797FFFFF77AFFF8E793
:1004A0000C0A0000000000200CED00E00400FA053A
:1004B000144801680029FCD07047134A02211160DA
:1004C00010490B68002BFCD00F4B1B1D18600868EF
:1004D0000028FCD00020106008680028FCD070477D
:1004E000094B10B501221A60064A1468002CFCD092
:1004F000016010680028FCD00020186010680028F7
:10050000FCD010BD00E4014004E5014070B50C468C
:10051000054600F073F810B900F07EF828B12146C6
:100520002846BDE8704000F007B821462846BDE8DF
:10053000704000F037B800007FB5002200920192B1
:10054000029203920A0B000B6946012302440AE05F
:10055000440900F01F0651F8245003FA06F635430B
:1005600041F82450401C8242F2D80D490868009A94
:1005700010430860081D0168019A1143016000F0F2
:100580003DF800280AD0064910310868029A104345
:100590000860091D0868039A104308607FBD0000C9
:1005A0000006004030B50F4C002200BF04EB0213E0
:1005B000D3F800582DB9D3F8045815B9D3F8085812
:1005C0001DB1521C082AF1D330BD082AFCD204EB1D
:1005D0000212C2F80008C3F804180220C3F8080881
:1005E00030BD000000E001404FF08050D0F83001F5
:1005F000082801D000207047012070474FF080503C
:10060000D0F83011062905D0D0F83001401C01D0B7
:1006100000207047012070474FF08050D0F8300123
:100620000A2801D0002070470120704708208F4918
:1006300009680958084710208C4909680958084773
:1006400014208A4909680958084718208749096809
:100650000958084730208549096809580847382053
:1006600082490968095808473C20804909680958A7
:10067000084740207D4909680958084744207B49BC
:1006800009680958084748207849096809580847FF
:100690004C20764909680958084750207349096871
:1006A00009580847542071490968095808475820D3
:1006B0006E490968095808475C206C49096809585F
:1006C0000847602069490968095808476420674954
:1006D00009680958084768206449096809580847A3
:1006E0006C20624909680958084770205F49096809
:1006F0000958084774205D49096809580847782057
:100700005A490968095808477C2058490968095816
:1007100008478020554909680958084784205349EB
:100720000968095808478820504909680958084746
:100730008C204E4909680958084790204B490968A0
:1007400009580847942049490968095808479820DA
:1007500046490968095808479C20444909680958CE
:100760000847A0204149096809580847A4203F4983
:10077000096809580847A8203C49096809580847EA
:10078000AC203A49096809580847B0203749096838
:1007900009580847B4203549096809580847B8205E
:1007A0003249096809580847BC2030490968095886
:1007B0000847C0202D49096809580847C4202B491B
:1007C000096809580847C82028490968095808478E
:1007D000CC202649096809580847D02023490968D0
:1007E00009580847D4202149096809580847D820E2
:1007F0001E49096809580847DC201C49096809583E
:100800000847E0201949096809580847E4201749B2
:10081000096809580847E820144909680958084731
:10082000EC201249096809580847F0200F49096867
:1008300009580847F4200D49096809580847F82065
:100840000A49096809580847FC20084909680958F5
:1008500008475FF480700549096809580847000097
:1008600003480449024A034B70470000000000207F
:10087000180A0000180A000040EA010310B59B079F
:100880000FD1042A0DD310C808C9121F9C42F8D0FA
:1008900020BA19BA884201D9012010BD4FF0FF30AB
:1008A00010BD1AB1D30703D0521C07E0002010BDC1
:1008B00010F8013B11F8014B1B1B07D110F8013B4D
:1008C00011F8014B1B1B01D1921EF1D1184610BD2E
:1008D00002F0FF0343EA032242EA024200F005B8B5
:1008E0007047704770474FF000020429C0F0128033
:1008F00010F0030C00F01B80CCF1040CBCF1020FD3
:1009000018BF00F8012BA8BF20F8022BA1EB0C01A7
:1009100000F00DB85FEAC17C24BF00F8012B00F89D
:10092000012B48BF00F8012B70474FF0000200B5C3
:10093000134694469646203922BFA0E80C50A0E802
:100940000C50B1F12001BFF4F7AF090728BFA0E8B0
:100950000C5048BF0CC05DF804EB890028BF40F87C
:10096000042B08BF704748BF20F8022B11F0804FBE
:1009700018BF00F8012B7047014B1B68DB68184754
:100980000000002009480A497047FFF7FBFFFFF706
:10099000B9FB00BD20BFFDE7064B1847064A1060B3
:1009A000016881F30888406800470000180A0000C9
:1009B000180A0000F3020000000000201EF0040FDF
:1009C0000CBFEFF30881EFF30981886902380078E2
:1009D000182803D100E00000074A1047074A1268B0
:1009E0002C3212681047000000B5054B1B68054A01
:1009F0009B58984700BD0000DB020000000000206B
:100A0000080A0000040000000010000000000000C0
:080A100000FFFFFF0090D0037E
:040000050000099955
:00000001FF
